:100000000C94DA010C940B020C940B020C940B026E
:100010000C940B020C940B020C940B020C940B022C
:100020000C940B020C940B020C940B020C940B021C
:100030000C940B020C940B020C940B020C940B020C
:100040000C940B020C940B020C940B020C940B02FC
:100050000C94540B0C940B020C940B020C94AA0AF3
:100060000C940B020C941E0B0C94F40A0C940B02CF
:100070000C940B020C940B020C940B020C940B02CC
:100080000C940B020C940B020C940B020C940B02BC
:100090000C940B020C940B020C940B020C9486092A
:1000A0000C940B020C940B020C940B020C940B029C
:1000B0000C940B020C940B020C940B020C940B028C
:1000C0000C940B020C940B020C940B020C940B027C
:1000D0000C940B020C940B020C940B020C940B026C
:1000E0000C940B0205A84CCDB2D44EB93836A902F7
:1000F0000C50B9918688083CA6AAAA2ABE00000026
:10010000803F0C948E030C9433030C9480030C9466
:10011000A5030C94A9030C94C1030C94BB030C9489
:1001200047050C9486030C9439050C94DD020C945D
:1001300016050C9404070C9495030C94E9040C9494
:10014000DA020C94B3030C94B7030C947F050C945F
:100150008A030C94AD030C94DB020C949F030C9463
:10016000DC020C94AA070C9425050C94E8040C946A
:10017000220C0C94EC020C94FF020C949B030C9444
:10018000C5030C9406030C94F30B0C94C0030C945D
:10019000CC050C94920300407A10F35A00A0724EE2
:1001A00018090010A5D4E80000E87648170000E41C
:1001B0000B54020000CA9A3B000000E1F505000064
:1001C00080969800000040420F000000A0860100C9
:1001D0000000102700000000E80300000000640099
:1001E000000000000A000000000001000000000004
:1001F0002C76D888DC674F0823DFC1DFAE59E1B128
:10020000B796E5E3E453C63AE651997696E8E6C236
:100210008426EB898C9B62ED407C6FFCEFBC9C9F3D
:1002200040F2BAA56FA5F490055A2AF75C936B6C5F
:10023000F9676DC11BFCE0E40D47FEF520E6B50053
:10024000D0ED902E0300943577050080841E0800C1
:1002500000204E0A000000C80C333333330F986E71
:1002600012831141EF8D2114893BE65516CFFEE62E
:10027000DB18D1844B381BF77C1D901DA4BBE424F4
:10028000203284725E228100C9F124ECA1E53D2771
:1002900000002100240027002A002D003000330038
:1002A00001010000040107010A01000022002500ED
:1002B00028002B002E00310034000201000005014F
:1002C00008010B01000020002300260029002C005B
:1002D0002F0032000001000003010601090105059D
:1002E0000505070508080808020202020A0A0808AC
:1002F00004040404010101010101010103030303DA
:1003000003030303040707070C0C0C0C0C0C0C0C68
:100310000202020206060606060606060B0B0B0B79
:100320000B0B0B0B0102102020080810204010209E
:1003300040800201020108040201010204081020A9
:1003400040808040201008040201800402018040A7
:100350002010080402010804020101020408102010
:100360004080010204081020408000000A0B0209AE
:100370000C0D0E080703040100000000000000003F
:10038000000000000000000000000000000000006D
:10039000000000000000121110000000000000002A
:1003A000000000000000000000000000000000004D
:1003B000220CF30B11241FBECFEFD1E2DEBFCDBF65
:1003C00000E00CBF25E0AAE2B3E001C01D92A9360F
:1003D000B207E1F713E0A0E0B2E0E6E4F5E300E005
:1003E0000BBF02C007900D92AA32B107D9F711E0F6
:1003F000C9EDD1E000E006C021970109802FFE0180
:100400000E94C916C83DD10780E00807A9F70E94DD
:100410004E0D0C94911A0C9400008091FF03909162
:100420000004892BD1F710926F0010928B0010926C
:100430008A00109289001092880010925A05E0916B
:100440006305F09164051082109200041092FF037E
:1004500008952F923F924F925F926F927F928F9268
:100460009F92AF92BF92CF92DF92EF92FF920F9343
:100470001F93CF93DF9300D01F92CDB7DEB72B0130
:100480003C0180910202909103029C0136952795D0
:100490003A832983A090B004B090B1040091AC04D9
:1004A0001091AD048090AE049090AF042090AA0407
:1004B0003090AB041C821B8289819A81EB81FC8184
:1004C0008E179F07C9F120E030E048EC52E4C301E9
:1004D000B2010E943E176B017C01F501619171919F
:1004E0005F01072E000C880B990B0E94AC15A70129
:1004F00096010E940B160E94B017F8016193719348
:100500008F01F401619171914F01072E000C880B4E
:10051000990B0E94AC15A70196010E940B160E9430
:10052000B017F101619371931F012B813C812F5F03
:100530003F4F3C832B83C0CF0F900F900F900F90B5
:10054000DF91CF911F910F91FF90EF90DF90CF90AF
:10055000BF90AF909F908F907F906F905F904F90E3
:100560003F902F9008952091B303260F3327331F18
:1005700021323105ECF42091D903FC0190E080E0B8
:10058000243069F082E00895A091B3032191AC0179
:100590004F565C4FA40FB52FB11D2C9301968617B3
:1005A00098F38091B303680F6093B30380E00895DC
:1005B00081E00895089508950895E0918803809159
:1005C0008703E81730F4F0E0E959FC4F808190E0B0
:1005D00008958FEF9FEF089590918803809187038E
:1005E0002FEF3FEF981748F4E92FF0E0E959FC4F5F
:1005F000208130E09F5F90938803C9010895809126
:10060000870390918803891B990B0895CF92DF92FD
:10061000EF92FF920F931F93CF93DF937C01CB0157
:100620008A0120916603222389F0EB016B01C40E3D
:10063000D51ECC15DD0569F06991D701ED91FC91CE
:100640000190F081E02DC7011995F3CF642F0E942E
:10065000B302C801DF91CF911F910F91FF90EF90EE
:10066000DF90CF900895CF93DF931F92CDB7DEB781
:100670006983209166032223F9F0209189032032B7
:1006800058F021E030E0FC013383228390E080E0E9
:100690000F90DF91CF91089580918A03E82FF0E0C9
:1006A000EA5BFC4F998190838F5F80938A038093EC
:1006B000890381E090E0ECCF61E0CE0101960E94D9
:1006C000B302F7CF8150823108F05AC0E82FF0E032
:1006D0008827E259FC4F8F4F0C94C9168E03920362
:1006E000800386038A03C00395039B039F03A5032E
:1006F000A903AD03B303B703C003BB03C103C50321
:10070000809180008F778093800008958091800091
:100710008F7DF9CF80918000877FF5CF84B58F776B
:1007200084BD089584B58F7DFBCF8091B0008F7715
:100730008093B00008958091B0008F7DF9CF8091B3
:1007400090008F77809390000895809190008F7D26
:10075000F9CF80919000877FF5CF8091A0008F77AF
:100760008093A00008958091A0008F7DF9CF8091A3
:10077000A000877FF5CF809120018F7780932001A3
:100780000895809120018F7DF9CF80912001877F8E
:10079000F5CFCF93DF93282F30E0F901E659FC4FD6
:1007A0008491F901EC5DFC4FD491F901E252FD4FC7
:1007B000C491CC23A1F081110E946203EC2FF0E0E0
:1007C000EE0FFF1FEC53FD4FA591B491EC91ED237B
:1007D00081E090E009F480E0DF91CF91089580E01E
:1007E00090E0FACF1F93CF93DF93282F30E0F901E9
:1007F000E659FC4F8491F901EC5DFC4FD491F9016D
:10080000E252FD4FC491CC23A9F0162F81110E9412
:100810006203EC2FF0E0EE0FFF1FE655FD4FA591B0
:10082000B4918FB7F894EC91111108C0D095DE23E4
:10083000DC938FBFDF91CF911F910895DE2BF8CF0E
:100840001092D90381E08093DB031092DA0361E018
:1008500084E10E94F20361E085E10E94F203E9EB8A
:10086000F0E080818E7F808380818D7F808388E42B
:100870008093B80085E48093BC000895CF93DF9304
:1008800091E0909390038823B9F0C091B800D09183
:10089000BA008091BC008A7B8093BC0060E084E158
:1008A0000E94F20360E085E10E94F2030E942004AE
:1008B000D093BA00C093B800DF91CF910895CF9341
:1008C000DF9390E0FC01EC5DFC4F249182529D4F40
:1008D000FC0184918823D1F090E0880F991FFC01DE
:1008E000E057FD4FA591B491FC01E655FD4FC59130
:1008F000D49161110EC09FB7F8948C91E22FE095CE
:100900008E238C932881E223E8839FBFDF91CF91D0
:1009100008958FB7F894EC91E22BEC938FBFF6CF4C
:100920003FB7F8948091420390914303A091440310
:10093000B091450326B5A89B05C02F3F19F001963D
:10094000A11DB11D3FBFBA2FA92F982F8827BC0129
:10095000CD01620F711D811D911D42E0660F771F51
:10096000881F991F4A95D1F708958F929F92AF9251
:10097000BF92CF92DF92EF92FF926B017C010E94B7
:1009800090044B015C01C114D104E104F104B9F0FD
:100990000E949004681979098A099B09683E73408E
:1009A0008105910580F321E0C21AD108E108F10820
:1009B00088EE880E83E0981EA11CB11CE4CFFF9046
:1009C000EF90DF90CF90BF90AF909F908F90089561
:1009D0000895AF92BF92CF92DF92EF92FF920F9362
:1009E0001F93CF93DF936C017B018B01040F151FC5
:1009F000EB015E01AE18BF08C017D10759F069912D
:100A0000D601ED91FC910190F081E02DC601199580
:100A1000892B79F7C501DF91CF911F910F91FF903D
:100A2000EF90DF90CF90BF90AF900895FC01538D71
:100A3000448D252F30E0842F90E0821B930B5417B8
:100A400010F0CF96089501970895FC01918D828D45
:100A5000981761F0A28DAE0FBF2FB11D5D968C91DE
:100A6000928D9F5F9F73928F90E008958FEF9FEF1D
:100A70000895FC01918D828D981731F0828DE80FD9
:100A8000F11D858D90E008958FEF9FEF0895FC0193
:100A9000918D228D892F90E0805C9F4F821B910960
:100AA0008F73992708958DE094E00E94470521E017
:100AB000892B09F420E0822F0895FC01A48DA80F52
:100AC000B92FB11DA35ABF4F2C91848D90E0019690
:100AD0008F739927848FA689B7892C93A089B189B0
:100AE0008C91837080648C93938D848D981306C051
:100AF0000288F389E02D80818F7D80830895EF92B5
:100B0000FF920F931F93CF93DF93EC0181E0888FC7
:100B10009B8D8C8D98131AC0E889F989808185FF97
:100B200015C09FB7F894EE89FF896083E889F98939
:100B300080818370806480839FBF81E090E0DF913B
:100B4000CF911F910F91FF90EF900895F62E0B8D8E
:100B500010E00F5F1F4F0F731127E02E8C8D8E1149
:100B60000CC00FB607FCFACFE889F989808185FFB0
:100B7000F5CFCE010E945D05F1CFEB8DEC0FFD2F7F
:100B8000F11DE35AFF4FF0829FB7F8940B8FEA896B
:100B9000FB8980818062CFCFCF93DF93EC01888D7A
:100BA0008823B9F0AA89BB89E889F9898C9185FDE8
:100BB00003C0808186FD0DC00FB607FCF7CF8C9176
:100BC00085FFF2CF808185FFEDCFCE010E945D05CC
:100BD000E9CFDF91CF91089580E090E0892B29F053
:100BE0000E94530581110E94000080E090E0892B53
:100BF00049F080E090E0892B29F00E9400008111EB
:100C00000E94000080E090E0892B49F080E090E0B5
:100C1000892B29F00E94000081110E94000080E0D1
:100C200090E0892B49F080E090E0892B29F00E9428
:100C3000000081110C9400000895CF92DF92EF9292
:100C4000FF920F931F93CF93DF93FC01C48121E0A8
:100C500020936603C0932A0310928A03109289039B
:100C60008485682B81E094E00E943303D09189034E
:100C7000D13208F092C00E9490046B017C018091F7
:100C8000D903811165C082E08093D90381E080930C
:100C9000DB038FEF8093D8031092FD03D093FC0306
:100CA000A6E4B3E0ECEDF3E080E0D81385C0109249
:100CB000FE038091FE03CC0FC82BC093FE038091EE
:100CC000DA03813009F07CC01092DA030E949004AC
:100CD0006B017C018091FE038093BB0080918C03AB
:100CE00090918D03A0918E03B0918F03892B8A2B55
:100CF0008B2B99F00E94900400918C0310918D032E
:100D000020918E0330918F036C197D098E099F0904
:100D10000617170728073907E0F18091BC0083FD0B
:100D2000D9CF85EC8093BC000E9490046B017C01BC
:100D30008091D903823009F445C08091D8038F3F58
:100D400061F18091D803803241F18091D80325C0B0
:100D500080918C0390918D03A0918E03B0918F03AD
:100D6000892B8A2B8B2B09F48ACF0E949004009147
:100D70008C0310918D0320918E0330918F036C1999
:100D80007D098E099F09061717072807390708F0FC
:100D900076CF80918B030E943E0410928A031092BA
:100DA000890310926603DF91CF911F910F91FF90FD
:100DB000EF90DF90CF9008959D9191938F5F75CFC5
:100DC00085EEB0CF80918C0390918D03A0918E031E
:100DD000B0918F03892B8A2B8B2B09F4A9CF0E940A
:100DE000900400918C0310918D0320918E0330911B
:100DF0008F036C197D098E099F09061717072807AD
:100E0000390708F095CFC5CF90E080E0089586E1DE
:100E10000E94C903892B69F487E10E94C903892BC9
:100E200059F488E10E94C903009711F083E090E033
:100E3000089581E090E0089582E090E00895CF93D6
:100E4000DF93EC01E881F9814481558160817181F2
:100E50008BE495E00E94E904EA81FB81448155819D
:100E6000608171818BE495E0DF91CF910C94E9046E
:100E70000F931F93CF938C01C62F0E941D066C2FDA
:100E80006460C8010E941D066C2F6B7FC8010E9420
:100E90001D0683EC90E00197F1F7CF911F910F9120
:100EA00008950F931F93CF93DF938C01D62FC42FF8
:100EB000607F642B0E94380780E1D89FB001112425
:100EC0006C2BC801DF91CF911F910F910C943807C3
:100ED000CF93DF9300D000D01F921F92CDB7DEB723
:100EE00098E0EAE0F2E0DE01119601900D929A9509
:100EF000E1F790915305981710F48FEF890F90E068
:100F0000880F991F21E030E02C0F3D1F820F931FA7
:100F1000FC016081606840E08BE495E028960FB6A4
:100F2000F894DEBF0FBECDBFDF91CF910C94510777
:100F300040E061E08BE495E00E9451078BE39FE184
:100F40000197F1F780915405882319F080E00C9403
:100F50006807089541E00E94510781E090E00895FC
:100F600085ED8093BC0080918C0390918D03A091BE
:100F70008E03B0918F030796A11DB11D23E0B69596
:100F8000A795979587952A95D1F72091BC0024FDC8
:100F900003C01092D903089540918C0350918D03A2
:100FA00060918E0370918F03452B462B472B69F37D
:100FB0000097A105B10541F02AE22A95F1F700C09A
:100FC0000197A109B109E1CF80918B030C943E04F4
:100FD000CF93DF93EC0188819981009711F00E94F3
:100FE0001719198218821D821C821B821A82DF91B6
:100FF000CF910895FC0180819181009711F00C94AC
:1010000017190895FB0101900020E9F73197AF010E
:10101000461B570BDC01ED91FC910280F381E02D22
:101020001994CF93DF93FC014481558160817181D4
:101030008DE094E00E94E904EC0162E472E08DE04E
:1010400094E00E9402088C0F9D1FDF91CF910895BC
:101050000F931F93CF93DF938C01EB01FC018081F1
:1010600091810097E1F06881798161157105A9F09E
:10107000428153812C813D814217530770F00E94B9
:101080008A1A8C819D81F801958384831D821C823C
:10109000DF91CF911F910F9108950E9417198881B8
:1010A0009981F801918380838A819B8193838283D4
:1010B0008C819D8195838483198218821B821A8278
:1010C000E5CF0F931F93CF93DF93EC018881998134
:1010D000009759F02A813B812617370730F081E0CD
:1010E000DF91CF911F910F9108958B016F5F7F4F1B
:1010F0000E94A019009759F0998388831B830A8363
:101100002C813D81232B59F7FC011082E8CF80E030
:10111000E7CFEF92FF920F931F93CF93DF93EC01F2
:101120007B01198218821B821A821D821C82FB019C
:1011300001900020E9F731978F01061B170BB801CA
:101140000E946108811109C0CE01DF91CF911F91EA
:101150000F91FF90EF900C94E8071D830C83B7016B
:1011600088819981DF91CF911F910F91FF90EF902E
:101170000C948A1AEF92FF920F931F93CF93DF93F1
:101180008C017B01EB0109900020E9F72197C61B38
:10119000D70BBE010E946108811109C0C801DF910F
:1011A000CF911F910F91FF90EF900C94E807F801F9
:1011B000D583C483B70180819181DF91CF911F9145
:1011C0000F91FF90EF900C948A1A0F931F93CF9377
:1011D000DF93CDB7DEB762970FB6F894DEBF0FBED0
:1011E000CDBF8C01CB01F8011182108213821282D3
:1011F000158214824AE0BE016F5F7F4F0E94241364
:10120000BE016F5F7F4FC8010E94BA0862960FB699
:10121000F894DEBF0FBECDBFDF91CF911F910F912C
:101220000895EF92FF920F931F93CF93DF93CDB763
:10123000DEB7A1970FB6F894DEBF0FBECDBF7C011D
:10124000CB01BA01F701118210821382128215823A
:1012500014828E010F5F1F4F22E044E00E940613AC
:10126000009789F0BC01C7010E94BA08A1960FB689
:10127000F894DEBF0FBECDBFDF91CF911F910F91CC
:10128000FF90EF900895C7010E94E807EFCFEF921B
:10129000FF920F931F93CF93DF936115710541F474
:1012A00080E0DF91CF911F910F91FF90EF90089513
:1012B00041155105B1F07B01EC010C811D81040F3A
:1012C000151FB8010E946108882351F328813981D4
:1012D0008C819D81B701820F931F0E948A1A1D8302
:1012E0000C8381E0DECFCF93DF93EC01FB014481DF
:1012F0005581608171810E944709811103C0CE012F
:101300000E94E807CE01DF91CF9108951F920F92BE
:101310000FB60F9211240BB60F922F933F934F935A
:101320005F936F937F938F939F93AF93BF93EF934D
:10133000FF938091B900887F803609F44DC008F092
:1013400040C0883209F4A9C028F5803109F49DC055
:10135000C8F4882309F4FBC0883009F496C0FF91D3
:10136000EF91BF91AF919F918F917F916F915F911D
:101370004F913F912F910F900BBE0F900FBE0F908A
:101380001F901895883109F488C0803241F7809306
:10139000D80314C0803409F49DC040F48033B9F3FD
:1013A0008833E9F68093D80385ECB0C0803509F422
:1013B00085C0883509F496C0883489F60E94B00744
:1013C000CECF883909F48CC038F5883729F050F42D
:1013D000883611F0803719F683E08093D903109294
:1013E000D70357C0883809F47BC0803919F080389A
:1013F00009F0B5CF8091D703803208F071C0E09139
:10140000D70381E08E0F8093D7038091BB00F0E07B
:10141000E954FC4F80833DC0803B39F0E0F4803AD2
:1014200009F479C0883A09F09ACF84E08093D9030F
:101430001092B4031092B303E091B103F091B203A0
:1014400019958091B30381110FC081E08093B3039C
:101450001092910309C0803C09F4A6CF883C09F49E
:10146000A3CF883B09F07BCFE091B40381E08E0FDE
:101470008093B403F0E0EF56FC4F80818093BB0073
:101480009091B4038091B30329C08091FE038093AF
:10149000BB0085EC8093BC0062CF9091FD038091EE
:1014A000FC03981758F5E091FD0381E08E0F8093BF
:1014B000FD03F0E0E452FC4F8081E9CFE091FD03B1
:1014C00081E08E0F8093FD038091BB00F0E0E45239
:1014D000FC4F80839091FD038091FC039817C8F224
:1014E00085E8D8CFE091FD0381E08E0F8093FD0366
:1014F0008091BB00F0E0E452FC4F80838091DB03DD
:1015000081115CCF81E08093DA0384EA8093BC0090
:101510001092D90324CF85EC8093BC001092D9039C
:101520008091D703803230F4E091D703F0E0E954A2
:10153000FC4F10826091D70370E0E091B503F09109
:10154000B60387EB93E019951092D70308CF10925A
:10155000D80334CF1F920F920FB60F9211242F93FE
:101560003F938F939F93AF93BF9380913E0390914E
:101570003F03A0914003B091410330913D0323E02C
:10158000230F2D3758F50196A11DB11D20933D0362
:1015900080933E0390933F03A0934003B093410395
:1015A0008091420390914303A0914403B09145037D
:1015B0000196A11DB11D8093420390934303A09314
:1015C0004403B0934503BF91AF919F918F913F9199
:1015D0002F910F900FBE0F901F90189526E8230FA4
:1015E0000296A11DB11DD2CF1F920F920FB60F927E
:1015F00011240BB60F922F933F934F935F936F93EA
:101600007F938F939F93AF93BF93EF93FF938DE05F
:1016100094E00E945D05FF91EF91BF91AF919F9182
:101620008F917F916F915F914F913F912F910F908B
:101630000BBE0F900FBE0F901F9018951F920F9228
:101640000FB60F9211240BB60F922F938F939F9387
:10165000EF93FF93E0911D04F0911E048081E091CF
:101660002304F091240482FD1DC090818091260402
:101670008F5F8F7320912704821741F0E091260439
:10168000F0E0E35FFB4F958F80932604FF91EF918D
:101690009F918F912F910F900BBE0F900FBE0F90C7
:1016A0001F9018958081F2CF1F920F920FB60F9264
:1016B00011240BB60F922F933F934F935F936F9329
:1016C0007F938F939F93AF93BF93EF93FF938091FB
:1016D0000102882309F45FC08091FF039091000408
:1016E000E091FF03F0910004880F991FA091AE04D0
:1016F000B091AF04A80FB91FCF01880F991FE091D7
:10170000AC04F091AD04E80FF91F8D919C912081FC
:101710003181821B930B90938B0080938A001092EF
:101720008900109288008091FF0390910004019637
:10173000909300048093FF032091FF0330910004F5
:1017400080910202909103029695879582179307E4
:1017500079F48091010291E08927809301026091E0
:1017600001028AE00E94F203109200041092FF032B
:10177000FF91EF91BF91AF919F918F917F916F9169
:101780005F914F913F912F910F900BBE0F900FBE25
:101790000F901F9018958091FF0390910004E091A5
:1017A000FF03F0910004880F991FA091B004B0913D
:1017B000B104A80FB91FCF01880F991FE091AA04A7
:1017C000F091AB04E80FF91F8D919C91208131813C
:1017D000821B930B909389008093880010928B005A
:1017E00010928A00A0CFCF93DF938BEE94E00E94FB
:1017F000FA0781EF94E00E94FA0787EF94E00E94D5
:10180000FA078DEF94E00E94FA0783E095E00E94CA
:10181000FA0789E095E00E94FA078FE095E00E94C0
:10182000FA0785E195E00E94FA07CBE4D5E0269718
:10183000CE010E94FA0785E0CB31D807C1F7DF91CE
:10184000CF910895E1E0F4E01382128288EE93E0F4
:10185000A0E0B0E084839583A683B78326E132E0DD
:1018600031832083EDE0F4E0138212828483958338
:10187000A683B78388E292E09183808385EC90E031
:101880009587848784EC90E09787868780EC90E04A
:10189000918B808B81EC90E0938B828B82EC90E03B
:1018A000958B848B86EC90E0978B868B118E128EB5
:1018B000138E148E8CEB91E00E947B189093B104F0
:1018C0008093B0048CEB91E00E947B189093AF045E
:1018D0008093AE048CEB91E00E947B189093AD0452
:1018E0008093AC048CEB91E00E947B189093AB0446
:1018F0008093AA04A4EBB4E040E050E068E472E412
:1019000011964D935D936D937C9314978AE090E0CC
:101910001A969C938E931997E8E5F5E080E496E09B
:1019200091838083128213821482B487A387B09339
:10193000B304A093B204EBE4F5E0138212828AE3CD
:1019400092E091838083118687E0848384E182879B
:1019500084E08387148665E472E08BE195E00E9461
:1019600089086EE472E081E295E00E9489086AE5E8
:1019700072E087E295E00E94890865E672E08DE2F8
:1019800095E00E94890863E772E083E395E00E9496
:10199000890860E872E089E395E00E9489086CE8B4
:1019A00072E08FE395E00E9489086BE972E085E4BC
:1019B00095E00E94890864E472E085E195E00E9468
:1019C000890864E472E08FE095E00E94890864E48D
:1019D00072E089E095E00E94890864E472E083E0A7
:1019E00095E00E94890864E472E08DEF94E00E9423
:1019F000890864E472E087EF94E00E94890864E457
:101A000072E081EF94E00E94890864E472E08BEE5A
:101A100094E00E948908EBECF4E08BE195E091837F
:101A2000808385E195E09383828381E295E09583CD
:101A300084838BEE94E09783868387E295E0918799
:101A4000808781EF94E0938782878DE295E0958788
:101A500084878DEF94E09787868783E395E0918B69
:101A6000808B89E095E0938B828B89E395E0958B61
:101A7000848B8FE095E0978B868B8FE395E0918F39
:101A8000808F83E095E0938F828F85E495E0958F3A
:101A9000848F87EF94E0978F868F0895CF93DF939D
:101AA000CDB7DEB76F970FB6F894DEBF0FBECDBFD0
:101AB000789484B5826084BD84B5816084BD85B529
:101AC000826085BD85B5816085BD80916E00816035
:101AD00080936E00109281008091810082608093DB
:101AE00081008091810081608093810080918000DD
:101AF0008160809380008091B10084608093B10008
:101B00008091B00081608093B000809191008260EC
:101B100080939100809191008160809391008091E9
:101B200090008160809390008091A10082608093FA
:101B3000A1008091A10081608093A1008091A0000C
:101B400081608093A00080912101826080932101B7
:101B50008091210181608093210180912001816029
:101B60008093200180917A00846080937A00809134
:101B70007A00826080937A0080917A0081608093FD
:101B80007A0080917A00806880937A001092C10078
:101B9000E0911D04F0911E0482E08083E09119041D
:101BA000F0911A041082E0911B04F0911C048FEC58
:101BB000808310922504E0912104F091220486E0B4
:101BC0008083E0911F04F0912004808180618083F4
:101BD000E0911F04F0912004808188608083E0916F
:101BE0001F04F0912004808180688083E0911F04AD
:101BF000F091200480818F7D808310928803109261
:101C0000870310928A03109289030E9420048AEDB0
:101C100092E09093B2038093B1038BED92E09093A6
:101C2000B6038093B503109250058091560582301B
:101C300018F098E0909350058093530562E370E0AC
:101C400080E090E00E94B504609157058BE495E038
:101C50000E941D0668EE73E080E090E00E94B504EB
:101C600060E38BE495E00E9438070BE416E4C801BA
:101C70000197F1F760E38BE495E00E943807C80113
:101C80000197F1F760E38BE495E00E94380783E564
:101C900092E00197F1F760E28BE495E00E9438074B
:101CA00060915005606240E08BE495E00E9451072E
:101CB00084E08093510540E06CE08BE495E00E9465
:101CC00051070E94980782E08093520540E066E049
:101CD0008BE495E00E94510740E062E08BE495E0E0
:101CE0000E9451078BE39FE10197F1F788E0809311
:101CF000570560E08BE495E00E941D060E9498075E
:101D000061EB72E08BE495E00E94020881E00E94A2
:101D1000680764EC72E08BE495E00E94020881E0C1
:101D200080935C050091630510916405F80161855D
:101D30007285072E000C880B990B0E94AC159B0135
:101D4000AC0160E070E080E89FE30E943E1720E075
:101D500030E04AE754E40E940B160E94B0177093DB
:101D60005E0560935D05072E000C880B990B0E94A1
:101D7000AC156B017C0128EB3EE145E85DE30E9478
:101D80003E170E94B0177093590560935805F801EB
:101D9000218132814381548160E070E080E89FE3DB
:101DA0000E943E1720E030E04AE754E40E940B1600
:101DB000A70196010E943E1720E030E04AE754E474
:101DC0000E940B160E94B7174B0170930302609399
:101DD00002028091B0049091B104009711F00E942A
:101DE00017198091AE049091AF04009711F00E94F2
:101DF00017191401369427940FEF1FEF2114F0E404
:101E00003F0630F484010E7F0115110509F47EC0F0
:101E1000C8010E947B187C018093B004F092B10449
:101E2000C8010E947B188C018093AE041093AF040C
:101E3000B40190E080E00E94AA1520E030E040E08C
:101E40005FE30E940B169B01AC0160E070E084E34D
:101E500093E40E943E172B013C01EA8EFB8E088F13
:101E6000198F809158059091590510E000E09C0170
:101E7000990F440B550B2C8F3D8F4E8F5F8F201683
:101E8000310609F446C06C8D7D8D8E8D9F8D0E942C
:101E9000AC154B015C01B80190E080E00E94AA15EE
:101EA000A30192010E940B162BED3FE049E450E4A0
:101EB0000E940B1620E030E044E353E40E943E17FA
:101EC0000E94EB176B017C0120E030E0A9010E9429
:101ED000E617181624F0F7FAF094F7F8F094A70133
:101EE0009601C501B4010E940B160E94B017EA8D3D
:101EF000FB8D61937193FB8FEA8FE88DF98D619370
:101F00007193F98FE88F0F5F1F4FB9CF01E010E099
:101F10007FCF80915C05882309F4B5C063ED72E042
:101F20008DE094E00E94020862E472E08DE094E0AB
:101F30000E940208E0916305F0916405418152819D
:101F400063817481CE0142960E94110965E672E0B8
:101F5000CE0101960E948908BE016E5E7F4FCE01C0
:101F600001960E9473098C0142E050E064EE72E039
:101F70000E944709811103C0C8010E94E807C801F7
:101F80000E941108CE0101960E94FA07CE014296E6
:101F90000E94FA0760915D0570915E05CE01429640
:101FA0000E94E50867EE72E0CE0101960E94890862
:101FB000BE016E5E7F4FCE0101960E9473098C01B7
:101FC00042E050E068EF72E00E944709811103C0CF
:101FD000C8010E94E807C8010E941108CE010196BD
:101FE0000E94FA07CE0142960E94FA0760915805B6
:101FF00070915905CE0142960E94E5086BEF72E0A0
:10200000CE0101960E948908BE016E5E7F4FCE010F
:1020100001960E9473090E941108CE0101960E9448
:10202000FA07CE0142960E94FA078091020290912F
:1020300003021B8A1A8A1D8A1C8A1F8A1E8A4AE08A
:10204000BE016F5F7F4F0E942F13BE016F5F7F4FF6
:10205000CE0142960E94BA086BE073E0CE01019671
:102060000E948908BE016E5E7F4FCE0101960E94DC
:1020700073090E941108CE0101960E94FA07CE0151
:1020800042960E94FA076AE070E080E090E00E94C9
:10209000B50482EA8093800089E180938100809179
:1020A0005805909159059093870080938600789405
:1020B00061E08DE00E945F0461E08BE00E945F04BC
:1020C00061E08CE00E945F0461E08AE00E945F04AE
:1020D0000E940D0280915C05882361F063E173E04A
:1020E0008DE094E00E94020862E472E08DE094E0EA
:1020F0000E94020862E370E080E090E00E94B50474
:1021000011E010936F0010935A0564EF71E080E0C6
:1021100090E00E94B504E0916305F091640510839E
:1021200060E086E10E945F0460E087E10E945F0456
:1021300060E088E10E945F0461E085E00E945F0446
:102140000E94980760E4C62EDD24D39474E0E72E45
:10215000F12C2FB7F89480913E0390913F03A0910A
:102160004003B09141032FBF8093390390933A030A
:10217000A0933B03B0933C03409135035091360349
:102180006091370370913803841B950BA60BB70B36
:102190000B97A105B105E4F180917B00877F8093C7
:1021A0007B00C0927C0080917A00806480937A00EA
:1021B00080917A0086FDFCCF609178007091790063
:1021C000072E000C880B990B0E94AC1527E231E317
:1021D00048EC5DE30E940B164B015C010E94B017B6
:1021E0007093CA046093C904C501B4010E94290216
:1021F0008091390390913A03A0913B03B0913C0345
:102200008093350390933603A0933703B09338033C
:102210008091390390913A03A0913B03B0913C0324
:102220004091310350913203609133037091340334
:10223000841B950BA60BB70B0B97A105B1050CF4EE
:10224000A5C00E940707019741F56AE070E080E0B1
:1022500090E00E94B50420E030E040E85FE3609148
:10226000B5047091B6048091B7049091B8040E94AF
:10227000D1166093B5047093B6048093B70490931D
:10228000B8040E94290285E00E94C90361E0892BFD
:1022900009F060E085E00E94F2030E9407070397BF
:1022A00041F56AE070E080E090E00E94B50420E033
:1022B00030E040E85FE36091B5047091B60480912E
:1022C000B7049091B8040E94D2166093B50470933D
:1022D000B6048093B7049093B8040E94290285E065
:1022E0000E94C90361E0892B09F060E085E00E944B
:1022F000F2030E9407070297C9F564E670E080E0E8
:1023000090E00E94B50485E00E94C90361E0892B3A
:1023100009F060E085E00E94F20385E00E94C903B5
:10232000892B09F460C160E070E088EC92E40E94BF
:102330002902D0926F00D0925A05E0916305F09186
:102340006405D08204E610E0B801012E000C880B71
:10235000990B0E94AC150E94290261E070E080E0B8
:1023600090E00E94B5040150110971F78091390382
:1023700090913A03A0913B03B0913C0380933103C9
:1023800090933203A0933303B093340380913903C5
:1023900090913A03A0913B03B0913C0340912D03EF
:1023A00050912E0360912F0370913003841B950B85
:1023B000A60BB70B8D329140A105B1050CF410C1ED
:1023C0000E9407078C01A090B204B090B304F501FD
:1023D00080816AEA72E0882311F06EEA72E085E19A
:1023E00095E00E94BA08F5014181528163817481B0
:1023F000CE0101960E941109BE016F5F7F4F8FE0F1
:1024000095E00E942808CE0101960E94FA07E0910B
:10241000B204F091B3044581568167817085CE0185
:1024200001960E941109BE016F5F7F4F89E095E020
:102430000E942808CE0101960E94FA07E091B2049A
:10244000F091B30461857285CE0101960E94E50882
:10245000BE016F5F7F4F83E095E00E942808CE01A8
:1024600001960E94FA07E091B204F091B30443850B
:10247000548565857685CE0101960E941109BE01BD
:102480006F5F7F4F8DEF94E00E942808CE01019688
:102490000E94FA07E091B204F091B3044785508995
:1024A00061897289CE0101960E941109BE016F5F98
:1024B0007F4F87EF94E00E942808CE0101960E948A
:1024C000FA07E091B204F091B30463897489CE01F4
:1024D00001960E94E508BE016F5F7F4F81EF94E097
:1024E0000E942808CE0101960E94FA07E091B204EA
:1024F000F091B30465897689CE0101960E94E508C2
:10250000BE016F5F7F4F8BEE94E00E942808CE01E2
:1025100001960E94FA070E94980780E00E946807CF
:1025200080912B0390912C03880F991F880F991F7E
:1025300085539B4F0E941F0781E00E94680780918E
:102540002B0390912C03880F991F880F991F81539B
:102550009B4F0E941F0782E00E94680780912B0317
:1025600090912C03880F991F880F991F8D529B4FB4
:102570000E941F0783E00E94680780912B039091BF
:102580002C03880F991F880F991F89529B4F0E9417
:102590001F070130110551F580912B0390912C03F9
:1025A000019690932C0380932B0380912B039091A1
:1025B0002C03843091051CF1F0922C03E0922B0344
:1025C0008091390390913A03A0913B03B0913C0371
:1025D00080932D0390932E03A0932F03B093300389
:1025E0000E94EC05B6CD0E940D02C0CE033011054D
:1025F000E1F680912B0390912C030197D2CF97FFA6
:10260000DFCF10922C0310922B03DACFEF920F93AF
:102610001F93CF93DF93E80134E047FD34E1042EAC
:10262000000C550B57FF03C0519541955109E32EFE
:10263000022F242FAE010E944913CE01DF91CF91CA
:102640001F910F91EF900895BB274A3031F49923E1
:1026500022F4BDE2909581959F4F0C943013BB27D7
:10266000FB015527AA27880F991FAA1FA41710F04E
:10267000A41B83955051B9F7A05DAA3308F0A95D5A
:10268000A193009779F7B111B1931192CB010C94FA
:102690009A158F929F92AF92BF92CF92DF92EF9254
:1026A000FF920F931F93CF93DF9300D000D000D001
:1026B000CDB7DEB76A01F22EB02E102FFBE3AF2E9E
:1026C000A01608F41BE31F5F012F27E0AE014F5F48
:1026D0005F4F0E94C214BC018981982F997091307C
:1026E00009F44EC09BE2E1FC04C09E2D9170E0FC19
:1026F00049C05E2D5071E82FE87083FF55C084E01B
:10270000911101C083E0EF2DE81B8F1508F0E0E088
:10271000D6018E2F20E25523C9F1992329F0D60145
:102720009C93C60101966C0196012D5F3F4FE2FE1E
:1027300033C08EE4D6018C9391E411969C9311974B
:1027400012968C93D9018E2F90E281112AC0E20F4C
:10275000F32FF11D10828EEF9FEF29960FB6F8949C
:10276000DEBF0FBECDBFDF91CF911F910F91FF90C4
:10277000EF90DF90CF90BF90AF909F908F90089593
:102780009DE2B7CF90E2B5CF2D9381508111FCCF60
:10279000CE0ED11CE0E0C1CF8EE6D6018C9391E63F
:1027A000CCCF9D938150D1CF482F447082FF3DC044
:1027B00084E0911101C083E08F1510F4EF2DE81B28
:1027C000D6018E2F20E2552309F1992329F0D60155
:1027D0009C93C60101966C0196012D5F3F4FE2FE6E
:1027E0001BC089E4D6018C938EE411968C931197CB
:1027F00086E412968C93D9018E2F90E2882309F4F7
:10280000A6CF9D938150FACF2D9381508111FCCF9B
:10281000CE0ED11CE0E0D9CF89E6D6018C938EE6AE
:1028200011968C93119786E6E4CF9B0177FF02C047
:1028300030E020E0A1E0B0E0911102C0B0E0A0E003
:10284000F9013196AE0FBF1F8B2C912CBB2009F4E0
:1028500061C05401EFEFAE1ABE0AAA0DBB1DFA16F5
:102860001B0619F014F04F2D4A1B511188C0E3FCD0
:1028700059C07601A42FB0E2A1114FC0C40ED11CE3
:10288000992309F45BC040E0D6011196F6019083CC
:102890006D01552309F448C0012F060F9A81582F66
:1028A000507184FF03C0913309F4015010160CF0ED
:1028B00047C0093008F008E0EEE2FE2E5B01A01AE6
:1028C000B10885019194819491082F3F320729F432
:1028D000D601FC92F60131966F016217730794F1ED
:1028E000021713077CF5DB01A21BB30BAA24A394E8
:1028F000B12CAC0EBD1EAA0DBB1D11968C912150A2
:102900003109D601119628153905F4F0F6018083B6
:102910006D01DBCFB12CA12CA0CFF701B1937F01CA
:10292000A150AACF9111B0CFD601942F50E302C08D
:102930005D9391509111FCCFC40ED11C40E0ACCFFF
:1029400001E0BACF80E3DBCF6217730731F496332F
:1029500088F4953311F4552369F0F6018083FD0165
:10296000842F90E2811108C0A40FB11D1C9290E049
:1029700080E0F3CE81E3F1CF91938150F3CF9111B9
:1029800083CF8ACF283008F027E03327DA01990F68
:10299000311D87FD916000966105710539F4326043
:1029A0002E5F3D9330E32A95E1F708959F3F30F085
:1029B00080387105610509F03C5F3C5F3D939130C3
:1029C00008F08068911DDF93CF931F930F93FF92C0
:1029D000EF92192F987F9695E92F96959695E90F86
:1029E000FF27E051FE4F99273327EE24FF24A7014C
:1029F000E70105900894079428F4360FE71EF81EA7
:102A0000491F511D660F771F881F991F0694A1F754
:102A10000590079428F4E70EF81E491F561FC11DA4
:102A2000770F881F991F661F0694A1F705900794DA
:102A300028F4F80E491F561FC71FD11D880F991F74
:102A4000661F771F0694A1F70590079420F4490F9D
:102A5000561FC71FD81F990F661F771F881F069420
:102A6000A9F784911095177041F0D695C7955795A1
:102A70004795F794E7941A95C1F7E6E9F1E0689471
:102A80001590159135916591959105907FE273951B
:102A9000E118F10A430B560BC90BD009C0F7E10C42
:102AA000F11E431F561FC91FD01D7EF4703311F451
:102AB0008A95E6CFE894015030F0080F0AF4002719
:102AC000021708F4202F2395022F7A3328F079E398
:102AD0007D932A95E9F710C07D932A9589F606948F
:102AE00097956795379517951794E118F10A430B59
:102AF000560BC90BD00998F023957E9173957A33C4
:102B000008F070E37C932013B8F77E9170617D9399
:102B100030F0839571E37D9370E32A95E1F71124FA
:102B2000EF90FF900F911F91CF91DF91992787FD33
:102B300090950895DC01FC01672F71917723E1F7EF
:102B4000329704C07C916D9370836291AE17BF077A
:102B5000C8F30895E89409C097FB3EF490958095DA
:102B6000709561957F4F8F4F9F4F9923A9F0F92F53
:102B700096E9BB279395F695879577956795B795D1
:102B8000F111F8CFFAF4BB0F11F460FF1BC06F5FB7
:102B90007F4F8F4F9F4F16C0882311F096E911C0C9
:102BA000772321F09EE8872F762F05C0662371F0EA
:102BB00096E8862F70E060E02AF09A95660F771FFE
:102BC000881FDAF7880F9695879597F90895990FDA
:102BD0000008550FAA0BE0E8FEEF16161706E807E7
:102BE000F907C0F012161306E407F50798F0621B08
:102BF000730B840B950B39F40A2661F0232B242BDD
:102C0000252B21F408950A2609F4A140A6958FEFFB
:102C1000811D811D08950E941E160C948F160E941E
:102C2000811638F00E94881620F0952311F00C943C
:102C300078160C947E1611240C94C3160E94A016CC
:102C400070F3959FC1F3950F50E0551F629FF001FF
:102C5000729FBB27F00DB11D639FAA27F00DB11D18
:102C6000AA1F649F6627B00DA11D661F829F2227A1
:102C7000B00DA11D621F739FB00DA11D621F839F28
:102C8000A00D611D221F749F3327A00D611D231FFE
:102C9000849F600D211D822F762F6A2F11249F574C
:102CA00050409AF0F1F088234AF0EE0FFF1FBB1F4F
:102CB000661F771F881F91505040A9F79E3F51050E
:102CC00080F00C9478160C94C3165F3FE4F3983EA2
:102CD000D4F3869577956795B795F795E7959F5FB8
:102CE000C1F7FE2B880F911D9695879597F908954A
:102CF00097F99F6780E870E060E008959FEF80ECAF
:102D0000089500240A941616170618060906089551
:102D100000240A9412161306140605060895092EB7
:102D20000394000C11F4882352F0BB0F40F4BF2B26
:102D300011F460FF04C06F5F7F4F8F4F9F4F089566
:102D400057FD9058440F551F59F05F3F71F047955C
:102D5000880F97FB991F61F09F3F79F08795089541
:102D6000121613061406551FF2CF4695F1DF08C060
:102D7000161617061806991FF1CF8695710561057D
:102D800008940895E894BB2766277727CB0197F925
:102D90000895EE0FFF1F881F8BBF0790F691E02D5F
:102DA00019945058BB27AA270E94E9160C948F1635
:102DB0000E94811638F00E94881620F039F49F3F57
:102DC00019F426F40C947E160EF4E095E7FB0C94AF
:102DD0007816E92F0E94A01658F3BA1762077307F6
:102DE0008407950720F079F4A6F50C94C2160EF42A
:102DF000E0950B2EBA2FA02D0B01B90190010C010B
:102E0000CA01A0011124FF27591B99F0593F50F422
:102E1000503E68F11A16F040A22F232F342F44277A
:102E2000585FF3CF469537952795A795F040539572
:102E3000C9F77EF41F16BA0B620B730B840BBAF042
:102E40009150A1F0FF0FBB1F661F771F881FC2F7AD
:102E50000EC0BA0F621F731F841F48F487957795C1
:102E60006795B795F7959E3F08F0B0CF9395880F7B
:102E700008F09927EE0F9795879508950E945217AD
:102E80000C948F160E94881658F00E94811640F00C
:102E900029F45F3F29F00C94781651110C94C31655
:102EA0000C947E160E94A01668F39923B1F3552363
:102EB00091F3951B550BBB27AA276217730784074D
:102EC00038F09F5F5F4F220F331F441FAA1FA9F3E3
:102ED00035D00E2E3AF0E0E832D091505040E695D1
:102EE000001CCAF72BD0FE2F29D0660F771F881F32
:102EF000BB1F261737074807AB07B0E809F0BB0B25
:102F0000802DBF01FF2793585F4F3AF09E3F510538
:102F100078F00C9478160C94C3165F3FE4F3983E57
:102F2000D4F3869577956795B795F7959F5FC9F721
:102F3000880F911D9695879597F90895E1E0660FA2
:102F4000771F881FBB1F621773078407BA0720F01B
:102F5000621B730B840BBA0BEE1F88F7E095089584
:102F60000E94B7176894B1110C94C31608950E947B
:102F7000A81688F09F5798F0B92F9927B751B0F04D
:102F8000E1F0660F771F881F991F1AF0BA95C9F7ED
:102F900014C0B13091F00E94C216B1E008950C94B3
:102FA000C216672F782F8827B85F39F0B93FCCF366
:102FB000869577956795B395D9F73EF4909580956A
:102FC000709561957F4F8F4F9F4F08950E94E71531
:102FD00008F48FEF08959F930E94F5170F9007FC58
:102FE000EE5F0C941E180C947E160E94A816D8F35F
:102FF000E894E0E0BB279F57F0F02AED3FE049EC72
:1030000006C0EE0FBB0F661F771F881F28F0B23A6D
:1030100062077307840728F0B25A620B730B840BA4
:10302000E3959A9572F7803830F49A95BB0F661F36
:10303000771F881FD2F790480C943418EF93E0FF65
:1030400007C0A2EA2AED3FE049EC5FEB0E94E916D7
:103050000E948F160F90039401FC9058E4EEF0E06C
:103060000C9440189F3F31F0915020F4879577954C
:103070006795B795880F911D9695879597F908954F
:103080009F938F937F936F93FF93EF939B01AC017B
:103090000E940B16EF91FF910E9454182F913F91BF
:1030A0004F915F910C940B16DF93CF931F930F9367
:1030B000FF92EF92DF927B018C01689406C0DA2EBA
:1030C000EF010E941E16FE01E894A591259135910D
:1030D00045915591A6F3EF010E94E916FE01970173
:1030E000A801DA9469F7DF90EF90FF900F911F919C
:1030F000CF91DF9108950F931F93CF93DF93823089
:10310000910510F482E090E0E0916705F091680588
:1031100030E020E0B0E0A0E0309799F421153105CF
:1031200009F44AC0281B390B24303105D8F58A81AF
:103130009B816115710589F1FB0193838283FE01F7
:1031400011C0408151810281138148175907E0F075
:103150004817590799F4109761F012960C9312973B
:1031600013961C933296CF01DF91CF911F910F914F
:1031700008950093670510936805F4CF2115310574
:1031800051F04217530738F0A901DB019A01BD0144
:10319000DF01F801C1CFEF01F9CF9093680580936B
:1031A0006705CDCFFE01E20FF31F8193919322506B
:1031B000310939832883D7CF209165053091660581
:1031C000232B41F4209106023091070230936605CB
:1031D00020936505209104023091050221153105E7
:1031E00041F42DB73EB74091080250910902241BCB
:1031F000350BE0916505F0916605E217F307A0F441
:103200002E1B3F0B2817390778F0AC014E5F5F4F3C
:103210002417350748F04E0F5F1F50936605409303
:103220006505819391939FCFF0E0E0E09CCFCF9331
:10323000DF930097E9F0FC01329713821282A0918C
:103240006705B0916805ED0130E020E01097A1F42A
:1032500020813181820F931F209165053091660591
:103260002817390709F061C0F0936605E0936505FA
:10327000DF91CF910895EA01CE17DF07E8F54A8183
:103280005B819E0141155105B1F7E901FB83EA839A
:1032900049915991C40FD51FEC17FD0761F4808146
:1032A00091810296840F951FE90199838883828119
:1032B00093819B838A83F0E0E0E012968D919C914C
:1032C00013970097B9F52D913C911197CD01029676
:1032D000820F931F209165053091660528173907E5
:1032E00039F6309751F51092680510926705B09342
:1032F0006605A0936505BCCFD383C283408151810D
:10330000840F951FC817D90761F44E5F5F4F8881FE
:103310009981480F591F518340838A819B819383F0
:1033200082832115310509F0B0CFF0936805E09351
:1033300067059ECFFD01DC01C0CF13821282D7CF7B
:103340004F925F926F927F928F929F92AF92BF92B5
:10335000CF92DF92EF92FF920F931F93CF93DF9361
:103360008C01009799F4CB01DF91CF911F910F91C0
:10337000FF90EF90DF90CF90BF90AF909F908F9095
:103380007F906F905F904F900C947B18FC01E60F3C
:10339000F71F9C0122503109E217F30708F4AEC071
:1033A000D901CD91DC911197C617D70720F1C5300F
:1033B000D10578F0CE0104978617970750F0C61B09
:1033C000D70B2297C193D1936D937C93CF010E9429
:1033D0001719C801DF91CF911F910F91FF90EF90C6
:1033E000DF90CF90BF90AF909F908F907F906F9025
:1033F0005F904F9008955B01AC1ABD0A4C018C0E92
:103400009D1EA0916705B0916805512C412CF12CAF
:10341000E12C109731F5809165059091660588152E
:10342000990509F05CC04616570608F058C080910F
:10343000040290910502009741F48DB79EB7409128
:10344000080250910902841B950BE817F90708F050
:1034500055C0F0936605E0936505F90171836083BB
:10346000B8CF8D919C91119712966C9012971396EC
:103470007C901397A815B90559F56C0142E0C40E6C
:10348000D11CCA14DB0420F1AC014A195B09DA0132
:103490001296159780F06282738251834083D9011E
:1034A0006D937C93E114F10471F0D7011396FC93B2
:1034B000EE9312978ECF22968C0F9D1FF901918368
:1034C0008083F301EFCFF0936805E093670581CF28
:1034D0004816590608F42C017D01D3019ACFCB017F
:1034E0000E947B187C01009749F0AE01B8010E9450
:1034F000811AC8010E94171987016BCF10E000E004
:1035000068CFFB01DC0102C001900D924150504098
:10351000D8F70895FB01DC0101900D920020E1F73E
:10352000089511E0C9EDD1E000E006C0802FFE0152
:103530000E94C9162196011DCA3DD10780E00807E7
:06354000A9F7F894FFCF8B
:103546000101C80000006905800000004000140069
:10355600540000000000330306030407DC02FF02E8
:10356600EC02DD02000000007F05E9041605CC052B
:1035760047052505390500000000AA07E9040407E8
:10358600E8040D0A005374617475733A20004F7590
:10359600747075742041433A2000496E707574202A
:1035A60041433A20004F75747075742046726571F8
:1035B6003A2000496E70757420467265713A200093
:1035C6004261742E20566F6C743A20004F757470E9
:1035D600757420506F7765723A2000436172726984
:1035E600657220467265713A20004F4646004F4E7E
:1035F600002D2D534D41525420494E5645525445A7
:10360600522D2D005677657273696F6E20312E31FB
:103616002E32005365747570206475747920646F5A
:103626006E652100487A00436172726965722050A6
:103636006572696F643A200075730054696D65722E
:1036460020636F756E7465723A20005374657073EB
:103656003A20005365747570206672657175656EE3
:0A366600637920646F6E6521000097
:00000001FF
